{
	"contracts/StartStopUpdate.sol": {
		"StartStopUpdateExample": {
			"abi": [
				{
					"inputs": [],
					"stateMutability": "nonpayable",
					"type": "constructor"
				},
				{
					"inputs": [
						{
							"internalType": "address payable",
							"name": "_to",
							"type": "address"
						}
					],
					"name": "destroySmartContract",
					"outputs": [],
					"stateMutability": "nonpayable",
					"type": "function"
				},
				{
					"inputs": [],
					"name": "owner",
					"outputs": [
						{
							"internalType": "address",
							"name": "",
							"type": "address"
						}
					],
					"stateMutability": "view",
					"type": "function"
				},
				{
					"inputs": [],
					"name": "paused",
					"outputs": [
						{
							"internalType": "bool",
							"name": "",
							"type": "bool"
						}
					],
					"stateMutability": "view",
					"type": "function"
				},
				{
					"inputs": [],
					"name": "sendMoney",
					"outputs": [],
					"stateMutability": "payable",
					"type": "function"
				},
				{
					"inputs": [
						{
							"internalType": "bool",
							"name": "_paused",
							"type": "bool"
						}
					],
					"name": "setPaused",
					"outputs": [],
					"stateMutability": "nonpayable",
					"type": "function"
				},
				{
					"inputs": [
						{
							"internalType": "address payable",
							"name": "_to",
							"type": "address"
						}
					],
					"name": "withdrawAllMoney",
					"outputs": [],
					"stateMutability": "nonpayable",
					"type": "function"
				}
			],
			"devdoc": {
				"kind": "dev",
				"methods": {},
				"version": 1
			},
			"evm": {
				"assembly": "    /* \"contracts/StartStopUpdate.sol\":59:3139  contract StartStopUpdateExample {... */\n  mstore(0x40, 0x80)\n    /* \"contracts/StartStopUpdate.sol\":885:936  constructor() {... */\n  callvalue\n  dup1\n  iszero\n  tag_1\n  jumpi\n  0x00\n  dup1\n  revert\ntag_1:\n  pop\n    /* \"contracts/StartStopUpdate.sol\":918:928  msg.sender */\n  caller\n    /* \"contracts/StartStopUpdate.sol\":910:915  owner */\n  0x00\n  dup1\n    /* \"contracts/StartStopUpdate.sol\":910:928  owner = msg.sender */\n  0x0100\n  exp\n  dup2\n  sload\n  dup2\n  0xffffffffffffffffffffffffffffffffffffffff\n  mul\n  not\n  and\n  swap1\n  dup4\n  0xffffffffffffffffffffffffffffffffffffffff\n  and\n  mul\n  or\n  swap1\n  sstore\n  pop\n    /* \"contracts/StartStopUpdate.sol\":59:3139  contract StartStopUpdateExample {... */\n  dataSize(sub_0)\n  dup1\n  dataOffset(sub_0)\n  0x00\n  codecopy\n  0x00\n  return\nstop\n\nsub_0: assembly {\n        /* \"contracts/StartStopUpdate.sol\":59:3139  contract StartStopUpdateExample {... */\n      mstore(0x40, 0x80)\n      jumpi(tag_1, lt(calldatasize, 0x04))\n      shr(0xe0, calldataload(0x00))\n      dup1\n      0x0adec93c\n      eq\n      tag_2\n      jumpi\n      dup1\n      0x16c38b3c\n      eq\n      tag_3\n      jumpi\n      dup1\n      0x39df43ff\n      eq\n      tag_4\n      jumpi\n      dup1\n      0x5c975abb\n      eq\n      tag_5\n      jumpi\n      dup1\n      0x8da5cb5b\n      eq\n      tag_6\n      jumpi\n      dup1\n      0xcbedbf5a\n      eq\n      tag_7\n      jumpi\n    tag_1:\n      0x00\n      dup1\n      revert\n        /* \"contracts/StartStopUpdate.sol\":2443:2668  function withdrawAllMoney(address payable _to) public {... */\n    tag_2:\n      callvalue\n      dup1\n      iszero\n      tag_8\n      jumpi\n      0x00\n      dup1\n      revert\n    tag_8:\n      pop\n      tag_9\n      0x04\n      dup1\n      calldatasize\n      sub\n      dup2\n      add\n      swap1\n      tag_10\n      swap2\n      swap1\n      tag_11\n      jump\t// in\n    tag_10:\n      tag_12\n      jump\t// in\n    tag_9:\n      stop\n        /* \"contracts/StartStopUpdate.sol\":1755:1894  function setPaused(bool _paused) public {... */\n    tag_3:\n      callvalue\n      dup1\n      iszero\n      tag_13\n      jumpi\n      0x00\n      dup1\n      revert\n    tag_13:\n      pop\n      tag_14\n      0x04\n      dup1\n      calldatasize\n      sub\n      dup2\n      add\n      swap1\n      tag_15\n      swap2\n      swap1\n      tag_16\n      jump\t// in\n    tag_15:\n      tag_17\n      jump\t// in\n    tag_14:\n      stop\n        /* \"contracts/StartStopUpdate.sol\":2978:3136  function destroySmartContract(address payable _to) public {... */\n    tag_4:\n      callvalue\n      dup1\n      iszero\n      tag_18\n      jumpi\n      0x00\n      dup1\n      revert\n    tag_18:\n      pop\n      tag_19\n      0x04\n      dup1\n      calldatasize\n      sub\n      dup2\n      add\n      swap1\n      tag_20\n      swap2\n      swap1\n      tag_11\n      jump\t// in\n    tag_20:\n      tag_21\n      jump\t// in\n    tag_19:\n      stop\n        /* \"contracts/StartStopUpdate.sol\":574:592  bool public paused */\n    tag_5:\n      callvalue\n      dup1\n      iszero\n      tag_22\n      jumpi\n      0x00\n      dup1\n      revert\n    tag_22:\n      pop\n      tag_23\n      tag_24\n      jump\t// in\n    tag_23:\n      mload(0x40)\n      tag_25\n      swap2\n      swap1\n      tag_26\n      jump\t// in\n    tag_25:\n      mload(0x40)\n      dup1\n      swap2\n      sub\n      swap1\n      return\n        /* \"contracts/StartStopUpdate.sol\":503:523  address public owner */\n    tag_6:\n      callvalue\n      dup1\n      iszero\n      tag_27\n      jumpi\n      0x00\n      dup1\n      revert\n    tag_27:\n      pop\n      tag_28\n      tag_29\n      jump\t// in\n    tag_28:\n      mload(0x40)\n      tag_30\n      swap2\n      swap1\n      tag_31\n      jump\t// in\n    tag_30:\n      mload(0x40)\n      dup1\n      swap2\n      sub\n      swap1\n      return\n        /* \"contracts/StartStopUpdate.sol\":1198:1244  function sendMoney() public payable {... */\n    tag_7:\n      tag_32\n      tag_33\n      jump\t// in\n    tag_32:\n      stop\n        /* \"contracts/StartStopUpdate.sol\":2443:2668  function withdrawAllMoney(address payable _to) public {... */\n    tag_12:\n        /* \"contracts/StartStopUpdate.sol\":2525:2535  msg.sender */\n      caller\n        /* \"contracts/StartStopUpdate.sol\":2516:2535  owner == msg.sender */\n      0xffffffffffffffffffffffffffffffffffffffff\n      and\n        /* \"contracts/StartStopUpdate.sol\":2516:2521  owner */\n      0x00\n      dup1\n      sload\n      swap1\n      0x0100\n      exp\n      swap1\n      div\n      0xffffffffffffffffffffffffffffffffffffffff\n      and\n        /* \"contracts/StartStopUpdate.sol\":2516:2535  owner == msg.sender */\n      0xffffffffffffffffffffffffffffffffffffffff\n      and\n      eq\n        /* \"contracts/StartStopUpdate.sol\":2508:2560  require(owner == msg.sender, \"You cannot withdraw.\") */\n      tag_35\n      jumpi\n      mload(0x40)\n      0x08c379a000000000000000000000000000000000000000000000000000000000\n      dup2\n      mstore\n      0x04\n      add\n      tag_36\n      swap1\n      tag_37\n      jump\t// in\n    tag_36:\n      mload(0x40)\n      dup1\n      swap2\n      sub\n      swap1\n      revert\n    tag_35:\n        /* \"contracts/StartStopUpdate.sol\":2589:2594  false */\n      0x00\n        /* \"contracts/StartStopUpdate.sol\":2579:2594  paused == false */\n      iszero\n      iszero\n        /* \"contracts/StartStopUpdate.sol\":2579:2585  paused */\n      0x00\n      0x14\n      swap1\n      sload\n      swap1\n      0x0100\n      exp\n      swap1\n      div\n      0xff\n      and\n        /* \"contracts/StartStopUpdate.sol\":2579:2594  paused == false */\n      iszero\n      iszero\n      eq\n        /* \"contracts/StartStopUpdate.sol\":2571:2614  require(paused == false, \"Contract Paused\") */\n      tag_38\n      jumpi\n      mload(0x40)\n      0x08c379a000000000000000000000000000000000000000000000000000000000\n      dup2\n      mstore\n      0x04\n      add\n      tag_39\n      swap1\n      tag_40\n      jump\t// in\n    tag_39:\n      mload(0x40)\n      dup1\n      swap2\n      sub\n      swap1\n      revert\n    tag_38:\n        /* \"contracts/StartStopUpdate.sol\":2625:2628  _to */\n      dup1\n        /* \"contracts/StartStopUpdate.sol\":2625:2637  _to.transfer */\n      0xffffffffffffffffffffffffffffffffffffffff\n      and\n        /* \"contracts/StartStopUpdate.sol\":2625:2660  _to.transfer(address(this).balance) */\n      0x08fc\n        /* \"contracts/StartStopUpdate.sol\":2638:2659  address(this).balance */\n      selfbalance\n        /* \"contracts/StartStopUpdate.sol\":2625:2660  _to.transfer(address(this).balance) */\n      swap1\n      dup2\n      iszero\n      mul\n      swap1\n      mload(0x40)\n      0x00\n      mload(0x40)\n      dup1\n      dup4\n      sub\n      dup2\n      dup6\n      dup9\n      dup9\n      call\n      swap4\n      pop\n      pop\n      pop\n      pop\n      iszero\n      dup1\n      iszero\n      tag_42\n      jumpi\n      returndatasize\n      0x00\n      dup1\n      returndatacopy\n      revert(0x00, returndatasize)\n    tag_42:\n      pop\n        /* \"contracts/StartStopUpdate.sol\":2443:2668  function withdrawAllMoney(address payable _to) public {... */\n      pop\n      jump\t// out\n        /* \"contracts/StartStopUpdate.sol\":1755:1894  function setPaused(bool _paused) public {... */\n    tag_17:\n        /* \"contracts/StartStopUpdate.sol\":1828:1833  owner */\n      0x00\n      dup1\n      sload\n      swap1\n      0x0100\n      exp\n      swap1\n      div\n      0xffffffffffffffffffffffffffffffffffffffff\n      and\n        /* \"contracts/StartStopUpdate.sol\":1814:1833  msg.sender == owner */\n      0xffffffffffffffffffffffffffffffffffffffff\n      and\n        /* \"contracts/StartStopUpdate.sol\":1814:1824  msg.sender */\n      caller\n        /* \"contracts/StartStopUpdate.sol\":1814:1833  msg.sender == owner */\n      0xffffffffffffffffffffffffffffffffffffffff\n      and\n      eq\n        /* \"contracts/StartStopUpdate.sol\":1806:1859  require(msg.sender == owner, \"You are not the owner\") */\n      tag_44\n      jumpi\n      mload(0x40)\n      0x08c379a000000000000000000000000000000000000000000000000000000000\n      dup2\n      mstore\n      0x04\n      add\n      tag_45\n      swap1\n      tag_46\n      jump\t// in\n    tag_45:\n      mload(0x40)\n      dup1\n      swap2\n      sub\n      swap1\n      revert\n    tag_44:\n        /* \"contracts/StartStopUpdate.sol\":1879:1886  _paused */\n      dup1\n        /* \"contracts/StartStopUpdate.sol\":1870:1876  paused */\n      0x00\n      0x14\n        /* \"contracts/StartStopUpdate.sol\":1870:1886  paused = _paused */\n      0x0100\n      exp\n      dup2\n      sload\n      dup2\n      0xff\n      mul\n      not\n      and\n      swap1\n      dup4\n      iszero\n      iszero\n      mul\n      or\n      swap1\n      sstore\n      pop\n        /* \"contracts/StartStopUpdate.sol\":1755:1894  function setPaused(bool _paused) public {... */\n      pop\n      jump\t// out\n        /* \"contracts/StartStopUpdate.sol\":2978:3136  function destroySmartContract(address payable _to) public {... */\n    tag_21:\n        /* \"contracts/StartStopUpdate.sol\":3069:3074  owner */\n      0x00\n      dup1\n      sload\n      swap1\n      0x0100\n      exp\n      swap1\n      div\n      0xffffffffffffffffffffffffffffffffffffffff\n      and\n        /* \"contracts/StartStopUpdate.sol\":3055:3074  msg.sender == owner */\n      0xffffffffffffffffffffffffffffffffffffffff\n      and\n        /* \"contracts/StartStopUpdate.sol\":3055:3065  msg.sender */\n      caller\n        /* \"contracts/StartStopUpdate.sol\":3055:3074  msg.sender == owner */\n      0xffffffffffffffffffffffffffffffffffffffff\n      and\n      eq\n        /* \"contracts/StartStopUpdate.sol\":3047:3100  require(msg.sender == owner, \"You are not the owner\") */\n      tag_48\n      jumpi\n      mload(0x40)\n      0x08c379a000000000000000000000000000000000000000000000000000000000\n      dup2\n      mstore\n      0x04\n      add\n      tag_49\n      swap1\n      tag_46\n      jump\t// in\n    tag_49:\n      mload(0x40)\n      dup1\n      swap2\n      sub\n      swap1\n      revert\n    tag_48:\n        /* \"contracts/StartStopUpdate.sol\":3124:3127  _to */\n      dup1\n        /* \"contracts/StartStopUpdate.sol\":3111:3128  selfdestruct(_to) */\n      0xffffffffffffffffffffffffffffffffffffffff\n      and\n      selfdestruct\n        /* \"contracts/StartStopUpdate.sol\":574:592  bool public paused */\n    tag_24:\n      0x00\n      0x14\n      swap1\n      sload\n      swap1\n      0x0100\n      exp\n      swap1\n      div\n      0xff\n      and\n      dup2\n      jump\t// out\n        /* \"contracts/StartStopUpdate.sol\":503:523  address public owner */\n    tag_29:\n      0x00\n      dup1\n      sload\n      swap1\n      0x0100\n      exp\n      swap1\n      div\n      0xffffffffffffffffffffffffffffffffffffffff\n      and\n      dup2\n      jump\t// out\n        /* \"contracts/StartStopUpdate.sol\":1198:1244  function sendMoney() public payable {... */\n    tag_33:\n      jump\t// out\n        /* \"#utility.yul\":88:205   */\n    tag_52:\n        /* \"#utility.yul\":197:198   */\n      0x00\n        /* \"#utility.yul\":194:195   */\n      dup1\n        /* \"#utility.yul\":187:199   */\n      revert\n        /* \"#utility.yul\":334:460   */\n    tag_54:\n        /* \"#utility.yul\":371:378   */\n      0x00\n        /* \"#utility.yul\":411:453   */\n      0xffffffffffffffffffffffffffffffffffffffff\n        /* \"#utility.yul\":404:409   */\n      dup3\n        /* \"#utility.yul\":400:454   */\n      and\n        /* \"#utility.yul\":389:454   */\n      swap1\n      pop\n        /* \"#utility.yul\":334:460   */\n      swap2\n      swap1\n      pop\n      jump\t// out\n        /* \"#utility.yul\":466:570   */\n    tag_55:\n        /* \"#utility.yul\":511:518   */\n      0x00\n        /* \"#utility.yul\":540:564   */\n      tag_77\n        /* \"#utility.yul\":558:563   */\n      dup3\n        /* \"#utility.yul\":540:564   */\n      tag_54\n      jump\t// in\n    tag_77:\n        /* \"#utility.yul\":529:564   */\n      swap1\n      pop\n        /* \"#utility.yul\":466:570   */\n      swap2\n      swap1\n      pop\n      jump\t// out\n        /* \"#utility.yul\":576:714   */\n    tag_56:\n        /* \"#utility.yul\":657:689   */\n      tag_79\n        /* \"#utility.yul\":683:688   */\n      dup2\n        /* \"#utility.yul\":657:689   */\n      tag_55\n      jump\t// in\n    tag_79:\n        /* \"#utility.yul\":650:655   */\n      dup2\n        /* \"#utility.yul\":647:690   */\n      eq\n        /* \"#utility.yul\":637:708   */\n      tag_80\n      jumpi\n        /* \"#utility.yul\":704:705   */\n      0x00\n        /* \"#utility.yul\":701:702   */\n      dup1\n        /* \"#utility.yul\":694:706   */\n      revert\n        /* \"#utility.yul\":637:708   */\n    tag_80:\n        /* \"#utility.yul\":576:714   */\n      pop\n      jump\t// out\n        /* \"#utility.yul\":720:875   */\n    tag_57:\n        /* \"#utility.yul\":774:779   */\n      0x00\n        /* \"#utility.yul\":812:818   */\n      dup2\n        /* \"#utility.yul\":799:819   */\n      calldataload\n        /* \"#utility.yul\":790:819   */\n      swap1\n      pop\n        /* \"#utility.yul\":828:869   */\n      tag_82\n        /* \"#utility.yul\":863:868   */\n      dup2\n        /* \"#utility.yul\":828:869   */\n      tag_56\n      jump\t// in\n    tag_82:\n        /* \"#utility.yul\":720:875   */\n      swap3\n      swap2\n      pop\n      pop\n      jump\t// out\n        /* \"#utility.yul\":881:1226   */\n    tag_11:\n        /* \"#utility.yul\":948:954   */\n      0x00\n        /* \"#utility.yul\":997:999   */\n      0x20\n        /* \"#utility.yul\":985:994   */\n      dup3\n        /* \"#utility.yul\":976:983   */\n      dup5\n        /* \"#utility.yul\":972:995   */\n      sub\n        /* \"#utility.yul\":968:1000   */\n      slt\n        /* \"#utility.yul\":965:1084   */\n      iszero\n      tag_84\n      jumpi\n        /* \"#utility.yul\":1003:1082   */\n      tag_85\n      tag_52\n      jump\t// in\n    tag_85:\n        /* \"#utility.yul\":965:1084   */\n    tag_84:\n        /* \"#utility.yul\":1123:1124   */\n      0x00\n        /* \"#utility.yul\":1148:1209   */\n      tag_86\n        /* \"#utility.yul\":1201:1208   */\n      dup5\n        /* \"#utility.yul\":1192:1198   */\n      dup3\n        /* \"#utility.yul\":1181:1190   */\n      dup6\n        /* \"#utility.yul\":1177:1199   */\n      add\n        /* \"#utility.yul\":1148:1209   */\n      tag_57\n      jump\t// in\n    tag_86:\n        /* \"#utility.yul\":1138:1209   */\n      swap2\n      pop\n        /* \"#utility.yul\":1094:1219   */\n      pop\n        /* \"#utility.yul\":881:1226   */\n      swap3\n      swap2\n      pop\n      pop\n      jump\t// out\n        /* \"#utility.yul\":1232:1322   */\n    tag_58:\n        /* \"#utility.yul\":1266:1273   */\n      0x00\n        /* \"#utility.yul\":1309:1314   */\n      dup2\n        /* \"#utility.yul\":1302:1315   */\n      iszero\n        /* \"#utility.yul\":1295:1316   */\n      iszero\n        /* \"#utility.yul\":1284:1316   */\n      swap1\n      pop\n        /* \"#utility.yul\":1232:1322   */\n      swap2\n      swap1\n      pop\n      jump\t// out\n        /* \"#utility.yul\":1328:1444   */\n    tag_59:\n        /* \"#utility.yul\":1398:1419   */\n      tag_89\n        /* \"#utility.yul\":1413:1418   */\n      dup2\n        /* \"#utility.yul\":1398:1419   */\n      tag_58\n      jump\t// in\n    tag_89:\n        /* \"#utility.yul\":1391:1396   */\n      dup2\n        /* \"#utility.yul\":1388:1420   */\n      eq\n        /* \"#utility.yul\":1378:1438   */\n      tag_90\n      jumpi\n        /* \"#utility.yul\":1434:1435   */\n      0x00\n        /* \"#utility.yul\":1431:1432   */\n      dup1\n        /* \"#utility.yul\":1424:1436   */\n      revert\n        /* \"#utility.yul\":1378:1438   */\n    tag_90:\n        /* \"#utility.yul\":1328:1444   */\n      pop\n      jump\t// out\n        /* \"#utility.yul\":1450:1583   */\n    tag_60:\n        /* \"#utility.yul\":1493:1498   */\n      0x00\n        /* \"#utility.yul\":1531:1537   */\n      dup2\n        /* \"#utility.yul\":1518:1538   */\n      calldataload\n        /* \"#utility.yul\":1509:1538   */\n      swap1\n      pop\n        /* \"#utility.yul\":1547:1577   */\n      tag_92\n        /* \"#utility.yul\":1571:1576   */\n      dup2\n        /* \"#utility.yul\":1547:1577   */\n      tag_59\n      jump\t// in\n    tag_92:\n        /* \"#utility.yul\":1450:1583   */\n      swap3\n      swap2\n      pop\n      pop\n      jump\t// out\n        /* \"#utility.yul\":1589:1912   */\n    tag_16:\n        /* \"#utility.yul\":1645:1651   */\n      0x00\n        /* \"#utility.yul\":1694:1696   */\n      0x20\n        /* \"#utility.yul\":1682:1691   */\n      dup3\n        /* \"#utility.yul\":1673:1680   */\n      dup5\n        /* \"#utility.yul\":1669:1692   */\n      sub\n        /* \"#utility.yul\":1665:1697   */\n      slt\n        /* \"#utility.yul\":1662:1781   */\n      iszero\n      tag_94\n      jumpi\n        /* \"#utility.yul\":1700:1779   */\n      tag_95\n      tag_52\n      jump\t// in\n    tag_95:\n        /* \"#utility.yul\":1662:1781   */\n    tag_94:\n        /* \"#utility.yul\":1820:1821   */\n      0x00\n        /* \"#utility.yul\":1845:1895   */\n      tag_96\n        /* \"#utility.yul\":1887:1894   */\n      dup5\n        /* \"#utility.yul\":1878:1884   */\n      dup3\n        /* \"#utility.yul\":1867:1876   */\n      dup6\n        /* \"#utility.yul\":1863:1885   */\n      add\n        /* \"#utility.yul\":1845:1895   */\n      tag_60\n      jump\t// in\n    tag_96:\n        /* \"#utility.yul\":1835:1895   */\n      swap2\n      pop\n        /* \"#utility.yul\":1791:1905   */\n      pop\n        /* \"#utility.yul\":1589:1912   */\n      swap3\n      swap2\n      pop\n      pop\n      jump\t// out\n        /* \"#utility.yul\":1918:2027   */\n    tag_61:\n        /* \"#utility.yul\":1999:2020   */\n      tag_98\n        /* \"#utility.yul\":2014:2019   */\n      dup2\n        /* \"#utility.yul\":1999:2020   */\n      tag_58\n      jump\t// in\n    tag_98:\n        /* \"#utility.yul\":1994:1997   */\n      dup3\n        /* \"#utility.yul\":1987:2021   */\n      mstore\n        /* \"#utility.yul\":1918:2027   */\n      pop\n      pop\n      jump\t// out\n        /* \"#utility.yul\":2033:2243   */\n    tag_26:\n        /* \"#utility.yul\":2120:2124   */\n      0x00\n        /* \"#utility.yul\":2158:2160   */\n      0x20\n        /* \"#utility.yul\":2147:2156   */\n      dup3\n        /* \"#utility.yul\":2143:2161   */\n      add\n        /* \"#utility.yul\":2135:2161   */\n      swap1\n      pop\n        /* \"#utility.yul\":2171:2236   */\n      tag_100\n        /* \"#utility.yul\":2233:2234   */\n      0x00\n        /* \"#utility.yul\":2222:2231   */\n      dup4\n        /* \"#utility.yul\":2218:2235   */\n      add\n        /* \"#utility.yul\":2209:2215   */\n      dup5\n        /* \"#utility.yul\":2171:2236   */\n      tag_61\n      jump\t// in\n    tag_100:\n        /* \"#utility.yul\":2033:2243   */\n      swap3\n      swap2\n      pop\n      pop\n      jump\t// out\n        /* \"#utility.yul\":2249:2345   */\n    tag_62:\n        /* \"#utility.yul\":2286:2293   */\n      0x00\n        /* \"#utility.yul\":2315:2339   */\n      tag_102\n        /* \"#utility.yul\":2333:2338   */\n      dup3\n        /* \"#utility.yul\":2315:2339   */\n      tag_54\n      jump\t// in\n    tag_102:\n        /* \"#utility.yul\":2304:2339   */\n      swap1\n      pop\n        /* \"#utility.yul\":2249:2345   */\n      swap2\n      swap1\n      pop\n      jump\t// out\n        /* \"#utility.yul\":2351:2469   */\n    tag_63:\n        /* \"#utility.yul\":2438:2462   */\n      tag_104\n        /* \"#utility.yul\":2456:2461   */\n      dup2\n        /* \"#utility.yul\":2438:2462   */\n      tag_62\n      jump\t// in\n    tag_104:\n        /* \"#utility.yul\":2433:2436   */\n      dup3\n        /* \"#utility.yul\":2426:2463   */\n      mstore\n        /* \"#utility.yul\":2351:2469   */\n      pop\n      pop\n      jump\t// out\n        /* \"#utility.yul\":2475:2697   */\n    tag_31:\n        /* \"#utility.yul\":2568:2572   */\n      0x00\n        /* \"#utility.yul\":2606:2608   */\n      0x20\n        /* \"#utility.yul\":2595:2604   */\n      dup3\n        /* \"#utility.yul\":2591:2609   */\n      add\n        /* \"#utility.yul\":2583:2609   */\n      swap1\n      pop\n        /* \"#utility.yul\":2619:2690   */\n      tag_106\n        /* \"#utility.yul\":2687:2688   */\n      0x00\n        /* \"#utility.yul\":2676:2685   */\n      dup4\n        /* \"#utility.yul\":2672:2689   */\n      add\n        /* \"#utility.yul\":2663:2669   */\n      dup5\n        /* \"#utility.yul\":2619:2690   */\n      tag_63\n      jump\t// in\n    tag_106:\n        /* \"#utility.yul\":2475:2697   */\n      swap3\n      swap2\n      pop\n      pop\n      jump\t// out\n        /* \"#utility.yul\":2703:2872   */\n    tag_64:\n        /* \"#utility.yul\":2787:2798   */\n      0x00\n        /* \"#utility.yul\":2821:2827   */\n      dup3\n        /* \"#utility.yul\":2816:2819   */\n      dup3\n        /* \"#utility.yul\":2809:2828   */\n      mstore\n        /* \"#utility.yul\":2861:2865   */\n      0x20\n        /* \"#utility.yul\":2856:2859   */\n      dup3\n        /* \"#utility.yul\":2852:2866   */\n      add\n        /* \"#utility.yul\":2837:2866   */\n      swap1\n      pop\n        /* \"#utility.yul\":2703:2872   */\n      swap3\n      swap2\n      pop\n      pop\n      jump\t// out\n        /* \"#utility.yul\":2878:3048   */\n    tag_65:\n        /* \"#utility.yul\":3018:3040   */\n      0x596f752063616e6e6f742077697468647261772e000000000000000000000000\n        /* \"#utility.yul\":3014:3015   */\n      0x00\n        /* \"#utility.yul\":3006:3012   */\n      dup3\n        /* \"#utility.yul\":3002:3016   */\n      add\n        /* \"#utility.yul\":2995:3041   */\n      mstore\n        /* \"#utility.yul\":2878:3048   */\n      pop\n      jump\t// out\n        /* \"#utility.yul\":3054:3420   */\n    tag_66:\n        /* \"#utility.yul\":3196:3199   */\n      0x00\n        /* \"#utility.yul\":3217:3284   */\n      tag_110\n        /* \"#utility.yul\":3281:3283   */\n      0x14\n        /* \"#utility.yul\":3276:3279   */\n      dup4\n        /* \"#utility.yul\":3217:3284   */\n      tag_64\n      jump\t// in\n    tag_110:\n        /* \"#utility.yul\":3210:3284   */\n      swap2\n      pop\n        /* \"#utility.yul\":3293:3386   */\n      tag_111\n        /* \"#utility.yul\":3382:3385   */\n      dup3\n        /* \"#utility.yul\":3293:3386   */\n      tag_65\n      jump\t// in\n    tag_111:\n        /* \"#utility.yul\":3411:3413   */\n      0x20\n        /* \"#utility.yul\":3406:3409   */\n      dup3\n        /* \"#utility.yul\":3402:3414   */\n      add\n        /* \"#utility.yul\":3395:3414   */\n      swap1\n      pop\n        /* \"#utility.yul\":3054:3420   */\n      swap2\n      swap1\n      pop\n      jump\t// out\n        /* \"#utility.yul\":3426:3845   */\n    tag_37:\n        /* \"#utility.yul\":3592:3596   */\n      0x00\n        /* \"#utility.yul\":3630:3632   */\n      0x20\n        /* \"#utility.yul\":3619:3628   */\n      dup3\n        /* \"#utility.yul\":3615:3633   */\n      add\n        /* \"#utility.yul\":3607:3633   */\n      swap1\n      pop\n        /* \"#utility.yul\":3679:3688   */\n      dup2\n        /* \"#utility.yul\":3673:3677   */\n      dup2\n        /* \"#utility.yul\":3669:3689   */\n      sub\n        /* \"#utility.yul\":3665:3666   */\n      0x00\n        /* \"#utility.yul\":3654:3663   */\n      dup4\n        /* \"#utility.yul\":3650:3667   */\n      add\n        /* \"#utility.yul\":3643:3690   */\n      mstore\n        /* \"#utility.yul\":3707:3838   */\n      tag_113\n        /* \"#utility.yul\":3833:3837   */\n      dup2\n        /* \"#utility.yul\":3707:3838   */\n      tag_66\n      jump\t// in\n    tag_113:\n        /* \"#utility.yul\":3699:3838   */\n      swap1\n      pop\n        /* \"#utility.yul\":3426:3845   */\n      swap2\n      swap1\n      pop\n      jump\t// out\n        /* \"#utility.yul\":3851:4016   */\n    tag_67:\n        /* \"#utility.yul\":3991:4008   */\n      0x436f6e7472616374205061757365640000000000000000000000000000000000\n        /* \"#utility.yul\":3987:3988   */\n      0x00\n        /* \"#utility.yul\":3979:3985   */\n      dup3\n        /* \"#utility.yul\":3975:3989   */\n      add\n        /* \"#utility.yul\":3968:4009   */\n      mstore\n        /* \"#utility.yul\":3851:4016   */\n      pop\n      jump\t// out\n        /* \"#utility.yul\":4022:4388   */\n    tag_68:\n        /* \"#utility.yul\":4164:4167   */\n      0x00\n        /* \"#utility.yul\":4185:4252   */\n      tag_116\n        /* \"#utility.yul\":4249:4251   */\n      0x0f\n        /* \"#utility.yul\":4244:4247   */\n      dup4\n        /* \"#utility.yul\":4185:4252   */\n      tag_64\n      jump\t// in\n    tag_116:\n        /* \"#utility.yul\":4178:4252   */\n      swap2\n      pop\n        /* \"#utility.yul\":4261:4354   */\n      tag_117\n        /* \"#utility.yul\":4350:4353   */\n      dup3\n        /* \"#utility.yul\":4261:4354   */\n      tag_67\n      jump\t// in\n    tag_117:\n        /* \"#utility.yul\":4379:4381   */\n      0x20\n        /* \"#utility.yul\":4374:4377   */\n      dup3\n        /* \"#utility.yul\":4370:4382   */\n      add\n        /* \"#utility.yul\":4363:4382   */\n      swap1\n      pop\n        /* \"#utility.yul\":4022:4388   */\n      swap2\n      swap1\n      pop\n      jump\t// out\n        /* \"#utility.yul\":4394:4813   */\n    tag_40:\n        /* \"#utility.yul\":4560:4564   */\n      0x00\n        /* \"#utility.yul\":4598:4600   */\n      0x20\n        /* \"#utility.yul\":4587:4596   */\n      dup3\n        /* \"#utility.yul\":4583:4601   */\n      add\n        /* \"#utility.yul\":4575:4601   */\n      swap1\n      pop\n        /* \"#utility.yul\":4647:4656   */\n      dup2\n        /* \"#utility.yul\":4641:4645   */\n      dup2\n        /* \"#utility.yul\":4637:4657   */\n      sub\n        /* \"#utility.yul\":4633:4634   */\n      0x00\n        /* \"#utility.yul\":4622:4631   */\n      dup4\n        /* \"#utility.yul\":4618:4635   */\n      add\n        /* \"#utility.yul\":4611:4658   */\n      mstore\n        /* \"#utility.yul\":4675:4806   */\n      tag_119\n        /* \"#utility.yul\":4801:4805   */\n      dup2\n        /* \"#utility.yul\":4675:4806   */\n      tag_68\n      jump\t// in\n    tag_119:\n        /* \"#utility.yul\":4667:4806   */\n      swap1\n      pop\n        /* \"#utility.yul\":4394:4813   */\n      swap2\n      swap1\n      pop\n      jump\t// out\n        /* \"#utility.yul\":4819:4990   */\n    tag_69:\n        /* \"#utility.yul\":4959:4982   */\n      0x596f7520617265206e6f7420746865206f776e65720000000000000000000000\n        /* \"#utility.yul\":4955:4956   */\n      0x00\n        /* \"#utility.yul\":4947:4953   */\n      dup3\n        /* \"#utility.yul\":4943:4957   */\n      add\n        /* \"#utility.yul\":4936:4983   */\n      mstore\n        /* \"#utility.yul\":4819:4990   */\n      pop\n      jump\t// out\n        /* \"#utility.yul\":4996:5362   */\n    tag_70:\n        /* \"#utility.yul\":5138:5141   */\n      0x00\n        /* \"#utility.yul\":5159:5226   */\n      tag_122\n        /* \"#utility.yul\":5223:5225   */\n      0x15\n        /* \"#utility.yul\":5218:5221   */\n      dup4\n        /* \"#utility.yul\":5159:5226   */\n      tag_64\n      jump\t// in\n    tag_122:\n        /* \"#utility.yul\":5152:5226   */\n      swap2\n      pop\n        /* \"#utility.yul\":5235:5328   */\n      tag_123\n        /* \"#utility.yul\":5324:5327   */\n      dup3\n        /* \"#utility.yul\":5235:5328   */\n      tag_69\n      jump\t// in\n    tag_123:\n        /* \"#utility.yul\":5353:5355   */\n      0x20\n        /* \"#utility.yul\":5348:5351   */\n      dup3\n        /* \"#utility.yul\":5344:5356   */\n      add\n        /* \"#utility.yul\":5337:5356   */\n      swap1\n      pop\n        /* \"#utility.yul\":4996:5362   */\n      swap2\n      swap1\n      pop\n      jump\t// out\n        /* \"#utility.yul\":5368:5787   */\n    tag_46:\n        /* \"#utility.yul\":5534:5538   */\n      0x00\n        /* \"#utility.yul\":5572:5574   */\n      0x20\n        /* \"#utility.yul\":5561:5570   */\n      dup3\n        /* \"#utility.yul\":5557:5575   */\n      add\n        /* \"#utility.yul\":5549:5575   */\n      swap1\n      pop\n        /* \"#utility.yul\":5621:5630   */\n      dup2\n        /* \"#utility.yul\":5615:5619   */\n      dup2\n        /* \"#utility.yul\":5611:5631   */\n      sub\n        /* \"#utility.yul\":5607:5608   */\n      0x00\n        /* \"#utility.yul\":5596:5605   */\n      dup4\n        /* \"#utility.yul\":5592:5609   */\n      add\n        /* \"#utility.yul\":5585:5632   */\n      mstore\n        /* \"#utility.yul\":5649:5780   */\n      tag_125\n        /* \"#utility.yul\":5775:5779   */\n      dup2\n        /* \"#utility.yul\":5649:5780   */\n      tag_70\n      jump\t// in\n    tag_125:\n        /* \"#utility.yul\":5641:5780   */\n      swap1\n      pop\n        /* \"#utility.yul\":5368:5787   */\n      swap2\n      swap1\n      pop\n      jump\t// out\n\n    auxdata: 0xa2646970667358221220213bfbe89747dd0b702219e97b80672fb7c51cacf583806f894e2f1a544112a464736f6c634300080f0033\n}\n",
				"bytecode": {
					"linkReferences": {},
					"object": "608060405234801561001057600080fd5b50336000806101000a81548173ffffffffffffffffffffffffffffffffffffffff021916908373ffffffffffffffffffffffffffffffffffffffff1602179055506106d4806100606000396000f3fe6080604052600436106100555760003560e01c80630adec93c1461005a57806316c38b3c1461008357806339df43ff146100ac5780635c975abb146100d55780638da5cb5b14610100578063cbedbf5a1461012b575b600080fd5b34801561006657600080fd5b50610081600480360381019061007c9190610451565b610135565b005b34801561008f57600080fd5b506100aa60048036038101906100a591906104b6565b610263565b005b3480156100b857600080fd5b506100d360048036038101906100ce9190610451565b61030e565b005b3480156100e157600080fd5b506100ea6103b5565b6040516100f791906104f2565b60405180910390f35b34801561010c57600080fd5b506101156103c8565b604051610122919061052e565b60405180910390f35b6101336103ec565b005b3373ffffffffffffffffffffffffffffffffffffffff1660008054906101000a900473ffffffffffffffffffffffffffffffffffffffff1673ffffffffffffffffffffffffffffffffffffffff16146101c3576040517f08c379a00000000000000000000000000000000000000000000000000000000081526004016101ba906105a6565b60405180910390fd5b60001515600060149054906101000a900460ff16151514610219576040517f08c379a000000000000000000000000000000000000000000000000000000000815260040161021090610612565b60405180910390fd5b8073ffffffffffffffffffffffffffffffffffffffff166108fc479081150290604051600060405180830381858888f1935050505015801561025f573d6000803e3d6000fd5b5050565b60008054906101000a900473ffffffffffffffffffffffffffffffffffffffff1673ffffffffffffffffffffffffffffffffffffffff163373ffffffffffffffffffffffffffffffffffffffff16146102f1576040517f08c379a00000000000000000000000000000000000000000000000000000000081526004016102e89061067e565b60405180910390fd5b80600060146101000a81548160ff02191690831515021790555050565b60008054906101000a900473ffffffffffffffffffffffffffffffffffffffff1673ffffffffffffffffffffffffffffffffffffffff163373ffffffffffffffffffffffffffffffffffffffff161461039c576040517f08c379a00000000000000000000000000000000000000000000000000000000081526004016103939061067e565b60405180910390fd5b8073ffffffffffffffffffffffffffffffffffffffff16ff5b600060149054906101000a900460ff1681565b60008054906101000a900473ffffffffffffffffffffffffffffffffffffffff1681565b565b600080fd5b600073ffffffffffffffffffffffffffffffffffffffff82169050919050565b600061041e826103f3565b9050919050565b61042e81610413565b811461043957600080fd5b50565b60008135905061044b81610425565b92915050565b600060208284031215610467576104666103ee565b5b60006104758482850161043c565b91505092915050565b60008115159050919050565b6104938161047e565b811461049e57600080fd5b50565b6000813590506104b08161048a565b92915050565b6000602082840312156104cc576104cb6103ee565b5b60006104da848285016104a1565b91505092915050565b6104ec8161047e565b82525050565b600060208201905061050760008301846104e3565b92915050565b6000610518826103f3565b9050919050565b6105288161050d565b82525050565b6000602082019050610543600083018461051f565b92915050565b600082825260208201905092915050565b7f596f752063616e6e6f742077697468647261772e000000000000000000000000600082015250565b6000610590601483610549565b915061059b8261055a565b602082019050919050565b600060208201905081810360008301526105bf81610583565b9050919050565b7f436f6e7472616374205061757365640000000000000000000000000000000000600082015250565b60006105fc600f83610549565b9150610607826105c6565b602082019050919050565b6000602082019050818103600083015261062b816105ef565b9050919050565b7f596f7520617265206e6f7420746865206f776e65720000000000000000000000600082015250565b6000610668601583610549565b915061067382610632565b602082019050919050565b600060208201905081810360008301526106978161065b565b905091905056fea2646970667358221220213bfbe89747dd0b702219e97b80672fb7c51cacf583806f894e2f1a544112a464736f6c634300080f0033",
					"opcodes": "PUSH1 0x80 PUSH1 0x40 MSTORE CALLVALUE DUP1 ISZERO PUSH2 0x10 JUMPI PUSH1 0x0 DUP1 REVERT JUMPDEST POP CALLER PUSH1 0x0 DUP1 PUSH2 0x100 EXP DUP2 SLOAD DUP2 PUSH20 0xFFFFFFFFFFFFFFFFFFFFFFFFFFFFFFFFFFFFFFFF MUL NOT AND SWAP1 DUP4 PUSH20 0xFFFFFFFFFFFFFFFFFFFFFFFFFFFFFFFFFFFFFFFF AND MUL OR SWAP1 SSTORE POP PUSH2 0x6D4 DUP1 PUSH2 0x60 PUSH1 0x0 CODECOPY PUSH1 0x0 RETURN INVALID PUSH1 0x80 PUSH1 0x40 MSTORE PUSH1 0x4 CALLDATASIZE LT PUSH2 0x55 JUMPI PUSH1 0x0 CALLDATALOAD PUSH1 0xE0 SHR DUP1 PUSH4 0xADEC93C EQ PUSH2 0x5A JUMPI DUP1 PUSH4 0x16C38B3C EQ PUSH2 0x83 JUMPI DUP1 PUSH4 0x39DF43FF EQ PUSH2 0xAC JUMPI DUP1 PUSH4 0x5C975ABB EQ PUSH2 0xD5 JUMPI DUP1 PUSH4 0x8DA5CB5B EQ PUSH2 0x100 JUMPI DUP1 PUSH4 0xCBEDBF5A EQ PUSH2 0x12B JUMPI JUMPDEST PUSH1 0x0 DUP1 REVERT JUMPDEST CALLVALUE DUP1 ISZERO PUSH2 0x66 JUMPI PUSH1 0x0 DUP1 REVERT JUMPDEST POP PUSH2 0x81 PUSH1 0x4 DUP1 CALLDATASIZE SUB DUP2 ADD SWAP1 PUSH2 0x7C SWAP2 SWAP1 PUSH2 0x451 JUMP JUMPDEST PUSH2 0x135 JUMP JUMPDEST STOP JUMPDEST CALLVALUE DUP1 ISZERO PUSH2 0x8F JUMPI PUSH1 0x0 DUP1 REVERT JUMPDEST POP PUSH2 0xAA PUSH1 0x4 DUP1 CALLDATASIZE SUB DUP2 ADD SWAP1 PUSH2 0xA5 SWAP2 SWAP1 PUSH2 0x4B6 JUMP JUMPDEST PUSH2 0x263 JUMP JUMPDEST STOP JUMPDEST CALLVALUE DUP1 ISZERO PUSH2 0xB8 JUMPI PUSH1 0x0 DUP1 REVERT JUMPDEST POP PUSH2 0xD3 PUSH1 0x4 DUP1 CALLDATASIZE SUB DUP2 ADD SWAP1 PUSH2 0xCE SWAP2 SWAP1 PUSH2 0x451 JUMP JUMPDEST PUSH2 0x30E JUMP JUMPDEST STOP JUMPDEST CALLVALUE DUP1 ISZERO PUSH2 0xE1 JUMPI PUSH1 0x0 DUP1 REVERT JUMPDEST POP PUSH2 0xEA PUSH2 0x3B5 JUMP JUMPDEST PUSH1 0x40 MLOAD PUSH2 0xF7 SWAP2 SWAP1 PUSH2 0x4F2 JUMP JUMPDEST PUSH1 0x40 MLOAD DUP1 SWAP2 SUB SWAP1 RETURN JUMPDEST CALLVALUE DUP1 ISZERO PUSH2 0x10C JUMPI PUSH1 0x0 DUP1 REVERT JUMPDEST POP PUSH2 0x115 PUSH2 0x3C8 JUMP JUMPDEST PUSH1 0x40 MLOAD PUSH2 0x122 SWAP2 SWAP1 PUSH2 0x52E JUMP JUMPDEST PUSH1 0x40 MLOAD DUP1 SWAP2 SUB SWAP1 RETURN JUMPDEST PUSH2 0x133 PUSH2 0x3EC JUMP JUMPDEST STOP JUMPDEST CALLER PUSH20 0xFFFFFFFFFFFFFFFFFFFFFFFFFFFFFFFFFFFFFFFF AND PUSH1 0x0 DUP1 SLOAD SWAP1 PUSH2 0x100 EXP SWAP1 DIV PUSH20 0xFFFFFFFFFFFFFFFFFFFFFFFFFFFFFFFFFFFFFFFF AND PUSH20 0xFFFFFFFFFFFFFFFFFFFFFFFFFFFFFFFFFFFFFFFF AND EQ PUSH2 0x1C3 JUMPI PUSH1 0x40 MLOAD PUSH32 0x8C379A000000000000000000000000000000000000000000000000000000000 DUP2 MSTORE PUSH1 0x4 ADD PUSH2 0x1BA SWAP1 PUSH2 0x5A6 JUMP JUMPDEST PUSH1 0x40 MLOAD DUP1 SWAP2 SUB SWAP1 REVERT JUMPDEST PUSH1 0x0 ISZERO ISZERO PUSH1 0x0 PUSH1 0x14 SWAP1 SLOAD SWAP1 PUSH2 0x100 EXP SWAP1 DIV PUSH1 0xFF AND ISZERO ISZERO EQ PUSH2 0x219 JUMPI PUSH1 0x40 MLOAD PUSH32 0x8C379A000000000000000000000000000000000000000000000000000000000 DUP2 MSTORE PUSH1 0x4 ADD PUSH2 0x210 SWAP1 PUSH2 0x612 JUMP JUMPDEST PUSH1 0x40 MLOAD DUP1 SWAP2 SUB SWAP1 REVERT JUMPDEST DUP1 PUSH20 0xFFFFFFFFFFFFFFFFFFFFFFFFFFFFFFFFFFFFFFFF AND PUSH2 0x8FC SELFBALANCE SWAP1 DUP2 ISZERO MUL SWAP1 PUSH1 0x40 MLOAD PUSH1 0x0 PUSH1 0x40 MLOAD DUP1 DUP4 SUB DUP2 DUP6 DUP9 DUP9 CALL SWAP4 POP POP POP POP ISZERO DUP1 ISZERO PUSH2 0x25F JUMPI RETURNDATASIZE PUSH1 0x0 DUP1 RETURNDATACOPY RETURNDATASIZE PUSH1 0x0 REVERT JUMPDEST POP POP JUMP JUMPDEST PUSH1 0x0 DUP1 SLOAD SWAP1 PUSH2 0x100 EXP SWAP1 DIV PUSH20 0xFFFFFFFFFFFFFFFFFFFFFFFFFFFFFFFFFFFFFFFF AND PUSH20 0xFFFFFFFFFFFFFFFFFFFFFFFFFFFFFFFFFFFFFFFF AND CALLER PUSH20 0xFFFFFFFFFFFFFFFFFFFFFFFFFFFFFFFFFFFFFFFF AND EQ PUSH2 0x2F1 JUMPI PUSH1 0x40 MLOAD PUSH32 0x8C379A000000000000000000000000000000000000000000000000000000000 DUP2 MSTORE PUSH1 0x4 ADD PUSH2 0x2E8 SWAP1 PUSH2 0x67E JUMP JUMPDEST PUSH1 0x40 MLOAD DUP1 SWAP2 SUB SWAP1 REVERT JUMPDEST DUP1 PUSH1 0x0 PUSH1 0x14 PUSH2 0x100 EXP DUP2 SLOAD DUP2 PUSH1 0xFF MUL NOT AND SWAP1 DUP4 ISZERO ISZERO MUL OR SWAP1 SSTORE POP POP JUMP JUMPDEST PUSH1 0x0 DUP1 SLOAD SWAP1 PUSH2 0x100 EXP SWAP1 DIV PUSH20 0xFFFFFFFFFFFFFFFFFFFFFFFFFFFFFFFFFFFFFFFF AND PUSH20 0xFFFFFFFFFFFFFFFFFFFFFFFFFFFFFFFFFFFFFFFF AND CALLER PUSH20 0xFFFFFFFFFFFFFFFFFFFFFFFFFFFFFFFFFFFFFFFF AND EQ PUSH2 0x39C JUMPI PUSH1 0x40 MLOAD PUSH32 0x8C379A000000000000000000000000000000000000000000000000000000000 DUP2 MSTORE PUSH1 0x4 ADD PUSH2 0x393 SWAP1 PUSH2 0x67E JUMP JUMPDEST PUSH1 0x40 MLOAD DUP1 SWAP2 SUB SWAP1 REVERT JUMPDEST DUP1 PUSH20 0xFFFFFFFFFFFFFFFFFFFFFFFFFFFFFFFFFFFFFFFF AND SELFDESTRUCT JUMPDEST PUSH1 0x0 PUSH1 0x14 SWAP1 SLOAD SWAP1 PUSH2 0x100 EXP SWAP1 DIV PUSH1 0xFF AND DUP2 JUMP JUMPDEST PUSH1 0x0 DUP1 SLOAD SWAP1 PUSH2 0x100 EXP SWAP1 DIV PUSH20 0xFFFFFFFFFFFFFFFFFFFFFFFFFFFFFFFFFFFFFFFF AND DUP2 JUMP JUMPDEST JUMP JUMPDEST PUSH1 0x0 DUP1 REVERT JUMPDEST PUSH1 0x0 PUSH20 0xFFFFFFFFFFFFFFFFFFFFFFFFFFFFFFFFFFFFFFFF DUP3 AND SWAP1 POP SWAP2 SWAP1 POP JUMP JUMPDEST PUSH1 0x0 PUSH2 0x41E DUP3 PUSH2 0x3F3 JUMP JUMPDEST SWAP1 POP SWAP2 SWAP1 POP JUMP JUMPDEST PUSH2 0x42E DUP2 PUSH2 0x413 JUMP JUMPDEST DUP2 EQ PUSH2 0x439 JUMPI PUSH1 0x0 DUP1 REVERT JUMPDEST POP JUMP JUMPDEST PUSH1 0x0 DUP2 CALLDATALOAD SWAP1 POP PUSH2 0x44B DUP2 PUSH2 0x425 JUMP JUMPDEST SWAP3 SWAP2 POP POP JUMP JUMPDEST PUSH1 0x0 PUSH1 0x20 DUP3 DUP5 SUB SLT ISZERO PUSH2 0x467 JUMPI PUSH2 0x466 PUSH2 0x3EE JUMP JUMPDEST JUMPDEST PUSH1 0x0 PUSH2 0x475 DUP5 DUP3 DUP6 ADD PUSH2 0x43C JUMP JUMPDEST SWAP2 POP POP SWAP3 SWAP2 POP POP JUMP JUMPDEST PUSH1 0x0 DUP2 ISZERO ISZERO SWAP1 POP SWAP2 SWAP1 POP JUMP JUMPDEST PUSH2 0x493 DUP2 PUSH2 0x47E JUMP JUMPDEST DUP2 EQ PUSH2 0x49E JUMPI PUSH1 0x0 DUP1 REVERT JUMPDEST POP JUMP JUMPDEST PUSH1 0x0 DUP2 CALLDATALOAD SWAP1 POP PUSH2 0x4B0 DUP2 PUSH2 0x48A JUMP JUMPDEST SWAP3 SWAP2 POP POP JUMP JUMPDEST PUSH1 0x0 PUSH1 0x20 DUP3 DUP5 SUB SLT ISZERO PUSH2 0x4CC JUMPI PUSH2 0x4CB PUSH2 0x3EE JUMP JUMPDEST JUMPDEST PUSH1 0x0 PUSH2 0x4DA DUP5 DUP3 DUP6 ADD PUSH2 0x4A1 JUMP JUMPDEST SWAP2 POP POP SWAP3 SWAP2 POP POP JUMP JUMPDEST PUSH2 0x4EC DUP2 PUSH2 0x47E JUMP JUMPDEST DUP3 MSTORE POP POP JUMP JUMPDEST PUSH1 0x0 PUSH1 0x20 DUP3 ADD SWAP1 POP PUSH2 0x507 PUSH1 0x0 DUP4 ADD DUP5 PUSH2 0x4E3 JUMP JUMPDEST SWAP3 SWAP2 POP POP JUMP JUMPDEST PUSH1 0x0 PUSH2 0x518 DUP3 PUSH2 0x3F3 JUMP JUMPDEST SWAP1 POP SWAP2 SWAP1 POP JUMP JUMPDEST PUSH2 0x528 DUP2 PUSH2 0x50D JUMP JUMPDEST DUP3 MSTORE POP POP JUMP JUMPDEST PUSH1 0x0 PUSH1 0x20 DUP3 ADD SWAP1 POP PUSH2 0x543 PUSH1 0x0 DUP4 ADD DUP5 PUSH2 0x51F JUMP JUMPDEST SWAP3 SWAP2 POP POP JUMP JUMPDEST PUSH1 0x0 DUP3 DUP3 MSTORE PUSH1 0x20 DUP3 ADD SWAP1 POP SWAP3 SWAP2 POP POP JUMP JUMPDEST PUSH32 0x596F752063616E6E6F742077697468647261772E000000000000000000000000 PUSH1 0x0 DUP3 ADD MSTORE POP JUMP JUMPDEST PUSH1 0x0 PUSH2 0x590 PUSH1 0x14 DUP4 PUSH2 0x549 JUMP JUMPDEST SWAP2 POP PUSH2 0x59B DUP3 PUSH2 0x55A JUMP JUMPDEST PUSH1 0x20 DUP3 ADD SWAP1 POP SWAP2 SWAP1 POP JUMP JUMPDEST PUSH1 0x0 PUSH1 0x20 DUP3 ADD SWAP1 POP DUP2 DUP2 SUB PUSH1 0x0 DUP4 ADD MSTORE PUSH2 0x5BF DUP2 PUSH2 0x583 JUMP JUMPDEST SWAP1 POP SWAP2 SWAP1 POP JUMP JUMPDEST PUSH32 0x436F6E7472616374205061757365640000000000000000000000000000000000 PUSH1 0x0 DUP3 ADD MSTORE POP JUMP JUMPDEST PUSH1 0x0 PUSH2 0x5FC PUSH1 0xF DUP4 PUSH2 0x549 JUMP JUMPDEST SWAP2 POP PUSH2 0x607 DUP3 PUSH2 0x5C6 JUMP JUMPDEST PUSH1 0x20 DUP3 ADD SWAP1 POP SWAP2 SWAP1 POP JUMP JUMPDEST PUSH1 0x0 PUSH1 0x20 DUP3 ADD SWAP1 POP DUP2 DUP2 SUB PUSH1 0x0 DUP4 ADD MSTORE PUSH2 0x62B DUP2 PUSH2 0x5EF JUMP JUMPDEST SWAP1 POP SWAP2 SWAP1 POP JUMP JUMPDEST PUSH32 0x596F7520617265206E6F7420746865206F776E65720000000000000000000000 PUSH1 0x0 DUP3 ADD MSTORE POP JUMP JUMPDEST PUSH1 0x0 PUSH2 0x668 PUSH1 0x15 DUP4 PUSH2 0x549 JUMP JUMPDEST SWAP2 POP PUSH2 0x673 DUP3 PUSH2 0x632 JUMP JUMPDEST PUSH1 0x20 DUP3 ADD SWAP1 POP SWAP2 SWAP1 POP JUMP JUMPDEST PUSH1 0x0 PUSH1 0x20 DUP3 ADD SWAP1 POP DUP2 DUP2 SUB PUSH1 0x0 DUP4 ADD MSTORE PUSH2 0x697 DUP2 PUSH2 0x65B JUMP JUMPDEST SWAP1 POP SWAP2 SWAP1 POP JUMP INVALID LOG2 PUSH5 0x6970667358 0x22 SLT KECCAK256 0x21 EXTCODESIZE 0xFB 0xE8 SWAP8 SELFBALANCE 0xDD SIGNEXTEND PUSH17 0x2219E97B80672FB7C51CACF583806F894E 0x2F BYTE SLOAD COINBASE SLT LOG4 PUSH5 0x736F6C6343 STOP ADDMOD 0xF STOP CALLER "
				},
				"gasEstimates": {
					"creation": {
						"codeDepositCost": "349600",
						"executionCost": "24652",
						"totalCost": "374252"
					},
					"external": {
						"destroySmartContract(address)": "30242",
						"owner()": "2577",
						"paused()": "2565",
						"sendMoney()": "208",
						"setPaused(bool)": "26896",
						"withdrawAllMoney(address)": "infinite"
					}
				},
				"methodIdentifiers": {
					"destroySmartContract(address)": "39df43ff",
					"owner()": "8da5cb5b",
					"paused()": "5c975abb",
					"sendMoney()": "cbedbf5a",
					"setPaused(bool)": "16c38b3c",
					"withdrawAllMoney(address)": "0adec93c"
				}
			},
			"storageLayout": {
				"storage": [
					{
						"astId": 3,
						"contract": "contracts/StartStopUpdate.sol:StartStopUpdateExample",
						"label": "owner",
						"offset": 0,
						"slot": "0",
						"type": "t_address"
					},
					{
						"astId": 5,
						"contract": "contracts/StartStopUpdate.sol:StartStopUpdateExample",
						"label": "paused",
						"offset": 20,
						"slot": "0",
						"type": "t_bool"
					}
				],
				"types": {
					"t_address": {
						"encoding": "inplace",
						"label": "address",
						"numberOfBytes": "20"
					},
					"t_bool": {
						"encoding": "inplace",
						"label": "bool",
						"numberOfBytes": "1"
					}
				}
			},
			"userdoc": {
				"kind": "user",
				"methods": {},
				"version": 1
			}
		}
	}
}